{
  "contractName": "TicketTransfer",
  "abi": [
    {
      "constant": false,
      "inputs": [
        {
          "name": "_firstName",
          "type": "string"
        },
        {
          "name": "_lastName",
          "type": "string"
        }
      ],
      "name": "accountCreation",
      "outputs": [],
      "payable": false,
      "stateMutability": "nonpayable",
      "type": "function"
    },
    {
      "constant": true,
      "inputs": [
        {
          "name": "",
          "type": "uint256"
        }
      ],
      "name": "tickets",
      "outputs": [
        {
          "name": "eventName",
          "type": "string"
        },
        {
          "name": "description",
          "type": "string"
        },
        {
          "name": "price",
          "type": "uint16"
        },
        {
          "name": "expiry_date",
          "type": "uint256"
        },
        {
          "name": "expiry_status",
          "type": "bool"
        }
      ],
      "payable": false,
      "stateMutability": "view",
      "type": "function"
    },
    {
      "constant": true,
      "inputs": [
        {
          "name": "",
          "type": "uint256"
        }
      ],
      "name": "ticketIdToPending",
      "outputs": [
        {
          "name": "",
          "type": "uint256"
        }
      ],
      "payable": false,
      "stateMutability": "view",
      "type": "function"
    },
    {
      "constant": false,
      "inputs": [
        {
          "name": "_eventName",
          "type": "string"
        },
        {
          "name": "_description",
          "type": "string"
        },
        {
          "name": "_price",
          "type": "uint16"
        }
      ],
      "name": "createTicket",
      "outputs": [],
      "payable": false,
      "stateMutability": "nonpayable",
      "type": "function"
    },
    {
      "inputs": [],
      "payable": false,
      "stateMutability": "nonpayable",
      "type": "constructor"
    },
    {
      "anonymous": false,
      "inputs": [
        {
          "indexed": true,
          "name": "_from",
          "type": "address"
        },
        {
          "indexed": true,
          "name": "_to",
          "type": "address"
        },
        {
          "indexed": true,
          "name": "_ticketId",
          "type": "uint256"
        }
      ],
      "name": "Transfer",
      "type": "event"
    },
    {
      "anonymous": false,
      "inputs": [
        {
          "indexed": true,
          "name": "_owner",
          "type": "address"
        },
        {
          "indexed": true,
          "name": "_approved",
          "type": "address"
        },
        {
          "indexed": true,
          "name": "_ticketId",
          "type": "uint256"
        }
      ],
      "name": "Approval",
      "type": "event"
    },
    {
      "anonymous": false,
      "inputs": [
        {
          "indexed": true,
          "name": "userId",
          "type": "uint256"
        },
        {
          "indexed": false,
          "name": "firstName",
          "type": "string"
        },
        {
          "indexed": false,
          "name": "lastName",
          "type": "string"
        }
      ],
      "name": "NewAccount",
      "type": "event"
    },
    {
      "anonymous": false,
      "inputs": [
        {
          "indexed": true,
          "name": "ticketId",
          "type": "uint256"
        },
        {
          "indexed": false,
          "name": "eventName",
          "type": "string"
        },
        {
          "indexed": false,
          "name": "description",
          "type": "string"
        },
        {
          "indexed": false,
          "name": "price",
          "type": "uint16"
        },
        {
          "indexed": false,
          "name": "expiry_date",
          "type": "uint256"
        },
        {
          "indexed": false,
          "name": "expiry_status",
          "type": "bool"
        }
      ],
      "name": "NewTicket",
      "type": "event"
    },
    {
      "constant": true,
      "inputs": [],
      "name": "getContractDeployer",
      "outputs": [
        {
          "name": "",
          "type": "address"
        }
      ],
      "payable": false,
      "stateMutability": "view",
      "type": "function"
    },
    {
      "constant": true,
      "inputs": [],
      "name": "getTicketCount",
      "outputs": [
        {
          "name": "",
          "type": "uint256"
        }
      ],
      "payable": false,
      "stateMutability": "view",
      "type": "function"
    },
    {
      "constant": true,
      "inputs": [
        {
          "name": "_owner",
          "type": "address"
        }
      ],
      "name": "balanceOf",
      "outputs": [
        {
          "name": "",
          "type": "uint256"
        }
      ],
      "payable": false,
      "stateMutability": "view",
      "type": "function"
    },
    {
      "constant": true,
      "inputs": [
        {
          "name": "_ticketId",
          "type": "uint256"
        }
      ],
      "name": "ownerOf",
      "outputs": [
        {
          "name": "",
          "type": "address"
        }
      ],
      "payable": false,
      "stateMutability": "view",
      "type": "function"
    },
    {
      "constant": true,
      "inputs": [
        {
          "name": "_ticketId",
          "type": "uint256"
        }
      ],
      "name": "checkExpiry",
      "outputs": [
        {
          "name": "",
          "type": "bool"
        }
      ],
      "payable": false,
      "stateMutability": "view",
      "type": "function"
    },
    {
      "constant": false,
      "inputs": [
        {
          "name": "_from",
          "type": "address"
        },
        {
          "name": "_to",
          "type": "address"
        },
        {
          "name": "_ticketId",
          "type": "uint256"
        }
      ],
      "name": "transferFrom",
      "outputs": [],
      "payable": true,
      "stateMutability": "payable",
      "type": "function"
    },
    {
      "constant": false,
      "inputs": [
        {
          "name": "_ticketId",
          "type": "uint256"
        },
        {
          "name": "_newPrice",
          "type": "uint16"
        }
      ],
      "name": "priceRevise",
      "outputs": [
        {
          "name": "",
          "type": "uint16"
        }
      ],
      "payable": false,
      "stateMutability": "nonpayable",
      "type": "function"
    },
    {
      "constant": false,
      "inputs": [
        {
          "name": "_approved",
          "type": "address"
        },
        {
          "name": "_ticketId",
          "type": "uint256"
        }
      ],
      "name": "approve",
      "outputs": [],
      "payable": true,
      "stateMutability": "payable",
      "type": "function"
    },
    {
      "constant": true,
      "inputs": [
        {
          "name": "_ticketId",
          "type": "uint256"
        }
      ],
      "name": "getApprovedBuyer",
      "outputs": [
        {
          "name": "",
          "type": "address"
        }
      ],
      "payable": false,
      "stateMutability": "view",
      "type": "function"
    },
    {
      "constant": false,
      "inputs": [
        {
          "name": "_to",
          "type": "address"
        },
        {
          "name": "_ticketId",
          "type": "uint256"
        }
      ],
      "name": "payBack",
      "outputs": [],
      "payable": true,
      "stateMutability": "payable",
      "type": "function"
    },
    {
      "constant": false,
      "inputs": [
        {
          "name": "_to",
          "type": "address"
        },
        {
          "name": "_ticketId",
          "type": "uint256"
        }
      ],
      "name": "resell",
      "outputs": [],
      "payable": true,
      "stateMutability": "payable",
      "type": "function"
    }
  ],
  "bytecode": "0x608060405234801561001057600080fd5b5033600560006101000a81548173ffffffffffffffffffffffffffffffffffffffff021916908373ffffffffffffffffffffffffffffffffffffffff160217905550601e600681905550612076806100696000396000f3fe6080604052600436106100e85760003560e01c80636352211e1161008a578063d0a8160911610059578063d0a8160914610628578063e4357cd7146106a3578063f6869dc8146106f6578063fc77386014610745576100e8565b80636352211e1461049557806370a08231146105105780638bb1e80614610575578063b7019744146105da576100e8565b80633502dcf2116100c65780633502dcf2146101d45780633650021314610222578063451452fb1461027957806350b4471214610354576100e8565b8063095ea7b3146100ed57806321c63a471461013b57806323b872dd14610166575b600080fd5b6101396004803603604081101561010357600080fd5b81019080803573ffffffffffffffffffffffffffffffffffffffff1690602001909291908035906020019092919050505061082e565b005b34801561014757600080fd5b50610150610c02565b6040518082815260200191505060405180910390f35b6101d26004803603606081101561017c57600080fd5b81019080803573ffffffffffffffffffffffffffffffffffffffff169060200190929190803573ffffffffffffffffffffffffffffffffffffffff16906020019092919080359060200190929190505050610c0f565b005b610220600480360360408110156101ea57600080fd5b81019080803573ffffffffffffffffffffffffffffffffffffffff16906020019092919080359060200190929190505050611109565b005b34801561022e57600080fd5b50610237611645565b604051808273ffffffffffffffffffffffffffffffffffffffff1673ffffffffffffffffffffffffffffffffffffffff16815260200191505060405180910390f35b34801561028557600080fd5b506103526004803603604081101561029c57600080fd5b81019080803590602001906401000000008111156102b957600080fd5b8201836020820111156102cb57600080fd5b803590602001918460018302840111640100000000831117156102ed57600080fd5b90919293919293908035906020019064010000000081111561030e57600080fd5b82018360208201111561032057600080fd5b8035906020019184600183028401116401000000008311171561034257600080fd5b909192939192939050505061166f565b005b34801561036057600080fd5b5061038d6004803603602081101561037757600080fd5b8101908080359060200190929190505050611826565b6040518080602001806020018661ffff1661ffff16815260200185815260200184151515158152602001838103835288818151815260200191508051906020019080838360005b838110156103ef5780820151818401526020810190506103d4565b50505050905090810190601f16801561041c5780820380516001836020036101000a031916815260200191505b50838103825287818151815260200191508051906020019080838360005b8381101561045557808201518184015260208101905061043a565b50505050905090810190601f1680156104825780820380516001836020036101000a031916815260200191505b5097505050505050505060405180910390f35b3480156104a157600080fd5b506104ce600480360360208110156104b857600080fd5b81019080803590602001909291905050506119b4565b604051808273ffffffffffffffffffffffffffffffffffffffff1673ffffffffffffffffffffffffffffffffffffffff16815260200191505060405180910390f35b34801561051c57600080fd5b5061055f6004803603602081101561053357600080fd5b81019080803573ffffffffffffffffffffffffffffffffffffffff1690602001909291905050506119f1565b6040518082815260200191505060405180910390f35b34801561058157600080fd5b506105bc6004803603604081101561059857600080fd5b8101908080359060200190929190803561ffff169060200190929190505050611a4c565b604051808261ffff1661ffff16815260200191505060405180910390f35b610626600480360360408110156105f057600080fd5b81019080803573ffffffffffffffffffffffffffffffffffffffff16906020019092919080359060200190929190505050611b66565b005b34801561063457600080fd5b506106616004803603602081101561064b57600080fd5b8101908080359060200190929190505050611c11565b604051808273ffffffffffffffffffffffffffffffffffffffff1673ffffffffffffffffffffffffffffffffffffffff16815260200191505060405180910390f35b3480156106af57600080fd5b506106dc600480360360208110156106c657600080fd5b8101908080359060200190929190505050611c4e565b604051808215151515815260200191505060405180910390f35b34801561070257600080fd5b5061072f6004803603602081101561071957600080fd5b8101908080359060200190929190505050611c89565b6040518082815260200191505060405180910390f35b34801561075157600080fd5b5061082c6004803603606081101561076857600080fd5b810190808035906020019064010000000081111561078557600080fd5b82018360208201111561079757600080fd5b803590602001918460018302840111640100000000831117156107b957600080fd5b9091929391929390803590602001906401000000008111156107da57600080fd5b8201836020820111156107ec57600080fd5b8035906020019184600183028401116401000000008311171561080e57600080fd5b9091929391929390803561ffff169060200190929190505050611ca1565b005b806003600082815260200190815260200160002060009054906101000a900473ffffffffffffffffffffffffffffffffffffffff1673ffffffffffffffffffffffffffffffffffffffff163373ffffffffffffffffffffffffffffffffffffffff161415610904576040517f08c379a00000000000000000000000000000000000000000000000000000000081526004018080602001828103825260168152602001807f596f7520617265206e6f74207468652062757965722e0000000000000000000081525060200191505060405180910390fd5b6001828154811061091157fe5b9060005260206000209060050201600301544210610997576040517f08c379a000000000000000000000000000000000000000000000000000000000815260040180806020018281038252600f8152602001807f5469636b657420657870697265642e000000000000000000000000000000000081525060200191505060405180910390fd5b6000600260003373ffffffffffffffffffffffffffffffffffffffff1673ffffffffffffffffffffffffffffffffffffffff1681526020019081526020016000205411610a4c576040517f08c379a000000000000000000000000000000000000000000000000000000000815260040180806020018281038252601f8152602001807f506c656173652063726561746520616e206163636f756e742066697273742e0081525060200191505060405180910390fd5b670de0b6b3a764000060018381548110610a6257fe5b906000526020600020906005020160020160009054906101000a900461ffff1661ffff160267ffffffffffffffff163414610b05576040517f08c379a00000000000000000000000000000000000000000000000000000000081526004018080602001828103825260118152602001807f4e6f7420656e6f756768206d6f6e65792e00000000000000000000000000000081525060200191505060405180910390fd5b826008600084815260200190815260200160002060006101000a81548173ffffffffffffffffffffffffffffffffffffffff021916908373ffffffffffffffffffffffffffffffffffffffff160217905550346007600084815260200190815260200160002081905550818373ffffffffffffffffffffffffffffffffffffffff166003600085815260200190815260200160002060009054906101000a900473ffffffffffffffffffffffffffffffffffffffff1673ffffffffffffffffffffffffffffffffffffffff167f8c5be1e5ebec7d5bd14f71427d1e84f3dd0314c0f7b2291e5b200ac8c7c3b92560405160405180910390a4505050565b6000600180549050905090565b806003600082815260200190815260200160002060009054906101000a900473ffffffffffffffffffffffffffffffffffffffff1673ffffffffffffffffffffffffffffffffffffffff163373ffffffffffffffffffffffffffffffffffffffff161415610ce5576040517f08c379a00000000000000000000000000000000000000000000000000000000081526004018080602001828103825260168152602001807f596f7520617265206e6f74207468652062757965722e0000000000000000000081525060200191505060405180910390fd5b60018281548110610cf257fe5b9060005260206000209060050201600301544210610d78576040517f08c379a000000000000000000000000000000000000000000000000000000000815260040180806020018281038252600f8152602001807f5469636b657420657870697265642e000000000000000000000000000000000081525060200191505060405180910390fd5b670de0b6b3a764000060018381548110610d8e57fe5b906000526020600020906005020160020160009054906101000a900461ffff1661ffff160267ffffffffffffffff163414610e31576040517f08c379a00000000000000000000000000000000000000000000000000000000081526004018080602001828103825260118152602001807f4e6f7420656e6f756768206d6f6e65792e00000000000000000000000000000081525060200191505060405180910390fd5b6000600260008573ffffffffffffffffffffffffffffffffffffffff1673ffffffffffffffffffffffffffffffffffffffff1681526020019081526020016000205411610ee6576040517f08c379a000000000000000000000000000000000000000000000000000000000815260040180806020018281038252601f8152602001807f506c656173652063726561746520616e206163636f756e742066697273742e0081525060200191505060405180910390fd5b8373ffffffffffffffffffffffffffffffffffffffff166108fc670de0b6b3a764000060018581548110610f1657fe5b906000526020600020906005020160020160009054906101000a900461ffff1661ffff160267ffffffffffffffff169081150290604051600060405180830381858888f19350505050158015610f70573d6000803e3d6000fd5b50826003600084815260200190815260200160002060006101000a81548173ffffffffffffffffffffffffffffffffffffffff021916908373ffffffffffffffffffffffffffffffffffffffff160217905550600460008573ffffffffffffffffffffffffffffffffffffffff1673ffffffffffffffffffffffffffffffffffffffff168152602001908152602001600020600081819054906101000a900461ffff16809291906001900391906101000a81548161ffff021916908361ffff16021790555050600460008473ffffffffffffffffffffffffffffffffffffffff1673ffffffffffffffffffffffffffffffffffffffff168152602001908152602001600020600081819054906101000a900461ffff168092919060010191906101000a81548161ffff021916908361ffff16021790555050818373ffffffffffffffffffffffffffffffffffffffff168573ffffffffffffffffffffffffffffffffffffffff167fddf252ad1be2c89b69c2b068fc378daa952ba7f163c4a11628f55a4df523b3ef60405160405180910390a450505050565b803373ffffffffffffffffffffffffffffffffffffffff166003600083815260200190815260200160002060009054906101000a900473ffffffffffffffffffffffffffffffffffffffff1673ffffffffffffffffffffffffffffffffffffffff16146111de576040517f08c379a00000000000000000000000000000000000000000000000000000000081526004018080602001828103825260198152602001807f596f7520646f6e2774206f776e20746865207469636b65742e0000000000000081525060200191505060405180910390fd5b6000600260003373ffffffffffffffffffffffffffffffffffffffff1673ffffffffffffffffffffffffffffffffffffffff1681526020019081526020016000205411611293576040517f08c379a000000000000000000000000000000000000000000000000000000000815260040180806020018281038252601f8152602001807f506c656173652063726561746520616e206163636f756e742066697273742e0081525060200191505060405180910390fd5b8273ffffffffffffffffffffffffffffffffffffffff166008600084815260200190815260200160002060009054906101000a900473ffffffffffffffffffffffffffffffffffffffff1673ffffffffffffffffffffffffffffffffffffffff1614611367576040517f08c379a000000000000000000000000000000000000000000000000000000000815260040180806020018281038252601e8152602001807f54686973206973206e6f7420616e20617070726f7665642062757965722e000081525060200191505060405180910390fd5b826003600084815260200190815260200160002060006101000a81548173ffffffffffffffffffffffffffffffffffffffff021916908373ffffffffffffffffffffffffffffffffffffffff160217905550600460003373ffffffffffffffffffffffffffffffffffffffff1673ffffffffffffffffffffffffffffffffffffffff168152602001908152602001600020600081819054906101000a900461ffff16809291906001900391906101000a81548161ffff021916908361ffff16021790555050600460008473ffffffffffffffffffffffffffffffffffffffff1673ffffffffffffffffffffffffffffffffffffffff168152602001908152602001600020600081819054906101000a900461ffff168092919060010191906101000a81548161ffff021916908361ffff16021790555050600560009054906101000a900473ffffffffffffffffffffffffffffffffffffffff1673ffffffffffffffffffffffffffffffffffffffff166108fc6006546007600086815260200190815260200160002054816114f857fe5b049081150290604051600060405180830381858888f19350505050158015611524573d6000803e3d6000fd5b503373ffffffffffffffffffffffffffffffffffffffff166108fc6001600654036006548161154f57fe5b0460076000868152602001908152602001600020548161156b57fe5b049081150290604051600060405180830381858888f19350505050158015611597573d6000803e3d6000fd5b5060076000838152602001908152602001600020600090556008600083815260200190815260200160002060006101000a81549073ffffffffffffffffffffffffffffffffffffffff0219169055818373ffffffffffffffffffffffffffffffffffffffff163373ffffffffffffffffffffffffffffffffffffffff167fddf252ad1be2c89b69c2b068fc378daa952ba7f163c4a11628f55a4df523b3ef60405160405180910390a4505050565b6000600560009054906101000a900473ffffffffffffffffffffffffffffffffffffffff16905090565b60008060405180606001604052803373ffffffffffffffffffffffffffffffffffffffff16815260200187878080601f016020809104026020016040519081016040528093929190818152602001838380828437600081840152601f19601f82011690508083019250505050505050815260200185858080601f016020809104026020016040519081016040528093929190818152602001838380828437600081840152601f19601f820116905080830192505050505050508152509080600181540180825580915050906001820390600052602060002090600302016000909192909190915060008201518160000160006101000a81548173ffffffffffffffffffffffffffffffffffffffff021916908373ffffffffffffffffffffffffffffffffffffffff16021790555060208201518160010190805190602001906117b9929190611fa5565b5060408201518160020190805190602001906117d6929190611fa5565b505050905080600260003373ffffffffffffffffffffffffffffffffffffffff1673ffffffffffffffffffffffffffffffffffffffff168152602001908152602001600020819055505050505050565b6001818154811061183357fe5b9060005260206000209060050201600091509050806000018054600181600116156101000203166002900480601f0160208091040260200160405190810160405280929190818152602001828054600181600116156101000203166002900480156118df5780601f106118b4576101008083540402835291602001916118df565b820191906000526020600020905b8154815290600101906020018083116118c257829003601f168201915b505050505090806001018054600181600116156101000203166002900480601f01602080910402602001604051908101604052809291908181526020018280546001816001161561010002031660029004801561197d5780601f106119525761010080835404028352916020019161197d565b820191906000526020600020905b81548152906001019060200180831161196057829003601f168201915b5050505050908060020160009054906101000a900461ffff16908060030154908060040160009054906101000a900460ff16905085565b60006003600083815260200190815260200160002060009054906101000a900473ffffffffffffffffffffffffffffffffffffffff169050919050565b6000600460008373ffffffffffffffffffffffffffffffffffffffff1673ffffffffffffffffffffffffffffffffffffffff16815260200190815260200160002060009054906101000a900461ffff1661ffff169050919050565b6000823373ffffffffffffffffffffffffffffffffffffffff166003600083815260200190815260200160002060009054906101000a900473ffffffffffffffffffffffffffffffffffffffff1673ffffffffffffffffffffffffffffffffffffffff1614611b23576040517f08c379a00000000000000000000000000000000000000000000000000000000081526004018080602001828103825260198152602001807f596f7520646f6e2774206f776e20746865207469636b65742e0000000000000081525060200191505060405180910390fd5b8260018581548110611b3157fe5b906000526020600020906005020160020160006101000a81548161ffff021916908361ffff1602179055508291505092915050565b8173ffffffffffffffffffffffffffffffffffffffff166108fc60076000848152602001908152602001600020549081150290604051600060405180830381858888f19350505050158015611bbf573d6000803e3d6000fd5b5060076000828152602001908152602001600020600090556008600082815260200190815260200160002060006101000a81549073ffffffffffffffffffffffffffffffffffffffff02191690555050565b60006008600083815260200190815260200160002060009054906101000a900473ffffffffffffffffffffffffffffffffffffffff169050919050565b600060018281548110611c5d57fe5b906000526020600020906005020160030154421015611c7f5760009050611c84565b600190505b919050565b60076020528060005260406000206000915090505481565b600060784201905060006001806040518060a001604052808a8a8080601f016020809104026020016040519081016040528093929190818152602001838380828437600081840152601f19601f82011690508083019250505050505050815260200188888080601f016020809104026020016040519081016040528093929190818152602001838380828437600081840152601f19601f8201169050808301925050505050505081526020018661ffff16815260200185815260200160001515815250908060018154018082558091505090600182039060005260206000209060050201600090919290919091506000820151816000019080519060200190611dab929190611fa5565b506020820151816001019080519060200190611dc8929190611fa5565b5060408201518160020160006101000a81548161ffff021916908361ffff1602179055506060820151816003015560808201518160040160006101000a81548160ff0219169083151502179055505050039050336003600083815260200190815260200160002060006101000a81548173ffffffffffffffffffffffffffffffffffffffff021916908373ffffffffffffffffffffffffffffffffffffffff160217905550600460003373ffffffffffffffffffffffffffffffffffffffff1673ffffffffffffffffffffffffffffffffffffffff168152602001908152602001600020600081819054906101000a900461ffff168092919060010191906101000a81548161ffff021916908361ffff16021790555050807f07ac1862c3f88efc3f7adce12c7627cdbf03427e621971ba0e08cd32868a808c88888888888860006040518080602001806020018661ffff1661ffff1681526020018581526020018415151515815260200183810383528a8a82818152602001925080828437600081840152601f19601f8201169050808301925050508381038252888882818152602001925080828437600081840152601f19601f820116905080830192505050995050505050505050505060405180910390a250505050505050565b828054600181600116156101000203166002900490600052602060002090601f016020900481019282601f10611fe657805160ff1916838001178555612014565b82800160010185558215612014579182015b82811115612013578251825591602001919060010190611ff8565b5b5090506120219190612025565b5090565b61204791905b8082111561204357600081600090555060010161202b565b5090565b9056fea165627a7a72305820d596fe7ecda489970cc13a869767bfc6737f7db880a9402b0b6b72ea0f71ca680029",
  "source": "pragma solidity >=0.4.21 <0.6.0;\n\nimport \"./TicketCreation_simplified.sol\";\nimport \"./erc721.sol\";\n\ncontract TicketTransfer is TicketCreation, ERC721 {\n    address payable contractDeployer;\n    uint256 commissionFactor;\n\n    constructor() public {\n        contractDeployer = msg.sender;\n        commissionFactor = 30;\n    }\n\n    event Transfer(address indexed _from, address indexed _to, uint256 indexed _ticketId);\n    event Approval(address indexed _owner, address indexed _approved, uint256 indexed _ticketId);\n\n    mapping (uint256 => uint256) public ticketIdToPending;\n    mapping (uint256 => address) approvedBuyers;\n\n    /* This modifier does not allow the msg.sender to be the seller */\n    modifier notSeller(uint256 _ticketId){\n        require(msg.sender != ticketsToOwner[_ticketId], \"You are not the buyer.\");\n        _;\n    }\n\n    /* This modifier requires the ticket holder to be msg.sender */\n    modifier ownsTicket(uint256 _ticketId){\n        require(ticketsToOwner[_ticketId] == msg.sender, \"You don't own the ticket.\");\n        _;\n    }\n\n    function getContractDeployer() public view returns (address) {\n        return contractDeployer;\n    }\n\n    function getTicketCount() public view returns (uint256) {\n        return tickets.length;\n    }\n    \n    function balanceOf(address _owner) external view returns (uint256){\n        return ownerToQuantity[_owner];\n    }\n\n    function ownerOf(uint256 _ticketId) external view returns (address){\n        return ticketsToOwner[_ticketId];\n    }\n\n    function checkExpiry(uint256 _ticketId) external view returns (bool){\n        if(now < tickets[_ticketId].expiry_date){\n            return false;\n        } else {\n            return true;\n        }\n    }\n\n    /* 1st TIME PURCHASE FROM PLATFORM - this is called when 1st time buyer presses the 'Purchase' button */\n    function transferFrom(address payable _from, address _to, uint256 _ticketId) external payable notSeller(_ticketId) {\n        require(now < tickets[_ticketId].expiry_date, \"Ticket expired.\");\n        require(msg.value == (tickets[_ticketId].price)*1 ether, \"Not enough money.\"); /* Requires buyer to pay the price of ticket */\n        require(adToUserId[_to] > 0, \"Please create an account first.\"); /* Requires user to have an account */\n        _from.transfer((tickets[_ticketId].price)*1 ether);\n        ticketsToOwner[_ticketId] = _to;\n        ownerToQuantity[_from]--;\n        ownerToQuantity[_to]++;\n        emit Transfer(_from, _to, _ticketId);\n    }\n\n    /* Buyer revises the price */\n    function priceRevise(uint256 _ticketId, uint16 _newPrice) external ownsTicket(_ticketId) returns(uint16){\n        tickets[_ticketId].price = _newPrice;\n        return _newPrice;\n    }\n\n    /* SECONDARY MARKET - a person looking to resell his/her ticket can only sell to a willing/approved buyer. This function is called by buyer. */\n    function approve(address _approved, uint256 _ticketId) external payable notSeller(_ticketId){\n        require(now < tickets[_ticketId].expiry_date, \"Ticket expired.\");\n        require(adToUserId[msg.sender] > 0, \"Please create an account first.\");\n        require(msg.value == (tickets[_ticketId].price) * 1 ether, \"Not enough money.\"); /* Requires buyer to pay the price of ticket */\n        approvedBuyers[_ticketId] = _approved; /* Buyer approves him/herself for the ticket, goes into the approved buyer mapping */\n        ticketIdToPending[_ticketId] = msg.value; /* Buyer's money gets stored in the contract, so we store it in a temp mapping */\n        emit Approval(ticketsToOwner[_ticketId], _approved, _ticketId);\n    }\n\n    /* Returning the approved buyer's address of a particular ticket ID */\n    function getApprovedBuyer(uint256 _ticketId) external view returns(address){\n        return approvedBuyers[_ticketId];\n    }\n\n    function payBack(address payable _to, uint256 _ticketId) external payable {\n        _to.transfer(ticketIdToPending[_ticketId]);\n        delete(ticketIdToPending[_ticketId]); /* Can be deleted as the mapping is no longer needed */\n        delete(approvedBuyers[_ticketId]); /* Can be deleted as the mapping is no longer needed */\n    }\n\n    /* SECONDARY MARKET - after the buyer is approved, seller presses 'Sell' button, and then the ticket's ownership gets transferred. Seller also gets money from contract. */\n    function resell(address _to, uint256 _ticketId) external payable ownsTicket(_ticketId) {\n        require(adToUserId[msg.sender] > 0, \"Please create an account first.\");\n        require(approvedBuyers[_ticketId] == _to, \"This is not an approved buyer.\");\n        ticketsToOwner[_ticketId] = _to;\n        ownerToQuantity[msg.sender]--;\n        ownerToQuantity[_to]++;\n        contractDeployer.transfer(ticketIdToPending[_ticketId]/commissionFactor);\n        msg.sender.transfer(ticketIdToPending[_ticketId]/(commissionFactor/(commissionFactor-1)));\n        delete(ticketIdToPending[_ticketId]); /* Can be deleted as the mapping is no longer needed */\n        delete(approvedBuyers[_ticketId]); /* Can be deleted as the mapping is no longer needed */\n        emit Transfer(msg.sender, _to, _ticketId);\n        }\n    }",
  "sourcePath": "/Users/AaronKo/Desktop/Solidity/TicketExchange2/contracts/TicketTransfer_simplified.sol",
  "compiler": {
    "name": "solc",
    "version": "0.5.8+commit.23d335f2.Emscripten.clang"
  },
  "schemaVersion": "3.0.11",
  "updatedAt": "2019-08-12T23:35:26.091Z",
  "devdoc": {
    "methods": {}
  },
  "userdoc": {
    "methods": {}
  }
}