{
  "contractName": "TicketCreation",
  "abi": [
    {
      "constant": true,
      "inputs": [
        {
          "name": "",
          "type": "uint256"
        }
      ],
      "name": "tickets",
      "outputs": [
        {
          "name": "eventName",
          "type": "string"
        },
        {
          "name": "description",
          "type": "string"
        },
        {
          "name": "price",
          "type": "uint16"
        },
        {
          "name": "expiry_date",
          "type": "uint256"
        },
        {
          "name": "expiry_status",
          "type": "bool"
        }
      ],
      "payable": false,
      "stateMutability": "view",
      "type": "function"
    },
    {
      "anonymous": false,
      "inputs": [
        {
          "indexed": true,
          "name": "userId",
          "type": "uint256"
        },
        {
          "indexed": false,
          "name": "firstName",
          "type": "string"
        },
        {
          "indexed": false,
          "name": "lastName",
          "type": "string"
        }
      ],
      "name": "NewAccount",
      "type": "event"
    },
    {
      "anonymous": false,
      "inputs": [
        {
          "indexed": true,
          "name": "ticketId",
          "type": "uint256"
        },
        {
          "indexed": false,
          "name": "eventName",
          "type": "string"
        },
        {
          "indexed": false,
          "name": "description",
          "type": "string"
        },
        {
          "indexed": false,
          "name": "price",
          "type": "uint16"
        },
        {
          "indexed": false,
          "name": "expiry_date",
          "type": "uint256"
        },
        {
          "indexed": false,
          "name": "expiry_status",
          "type": "bool"
        }
      ],
      "name": "NewTicket",
      "type": "event"
    },
    {
      "constant": false,
      "inputs": [
        {
          "name": "_firstName",
          "type": "string"
        },
        {
          "name": "_lastName",
          "type": "string"
        }
      ],
      "name": "accountCreation",
      "outputs": [],
      "payable": false,
      "stateMutability": "nonpayable",
      "type": "function"
    },
    {
      "constant": false,
      "inputs": [
        {
          "name": "_eventName",
          "type": "string"
        },
        {
          "name": "_description",
          "type": "string"
        },
        {
          "name": "_price",
          "type": "uint16"
        }
      ],
      "name": "createTicket",
      "outputs": [],
      "payable": false,
      "stateMutability": "nonpayable",
      "type": "function"
    }
  ],
  "bytecode": "0x608060405234801561001057600080fd5b50610a3e806100206000396000f3fe608060405234801561001057600080fd5b50600436106100415760003560e01c8063451452fb1461004657806350b4471214610114578063fc77386014610248575b600080fd5b6101126004803603604081101561005c57600080fd5b810190808035906020019064010000000081111561007957600080fd5b82018360208201111561008b57600080fd5b803590602001918460018302840111640100000000831117156100ad57600080fd5b9091929391929390803590602001906401000000008111156100ce57600080fd5b8201836020820111156100e057600080fd5b8035906020019184600183028401116401000000008311171561010257600080fd5b9091929391929390505050610324565b005b6101406004803603602081101561012a57600080fd5b81019080803590602001909291905050506104db565b6040518080602001806020018661ffff1661ffff16815260200185815260200184151515158152602001838103835288818151815260200191508051906020019080838360005b838110156101a2578082015181840152602081019050610187565b50505050905090810190601f1680156101cf5780820380516001836020036101000a031916815260200191505b50838103825287818151815260200191508051906020019080838360005b838110156102085780820151818401526020810190506101ed565b50505050905090810190601f1680156102355780820380516001836020036101000a031916815260200191505b5097505050505050505060405180910390f35b6103226004803603606081101561025e57600080fd5b810190808035906020019064010000000081111561027b57600080fd5b82018360208201111561028d57600080fd5b803590602001918460018302840111640100000000831117156102af57600080fd5b9091929391929390803590602001906401000000008111156102d057600080fd5b8201836020820111156102e257600080fd5b8035906020019184600183028401116401000000008311171561030457600080fd5b9091929391929390803561ffff169060200190929190505050610669565b005b60008060405180606001604052803373ffffffffffffffffffffffffffffffffffffffff16815260200187878080601f016020809104026020016040519081016040528093929190818152602001838380828437600081840152601f19601f82011690508083019250505050505050815260200185858080601f016020809104026020016040519081016040528093929190818152602001838380828437600081840152601f19601f820116905080830192505050505050508152509080600181540180825580915050906001820390600052602060002090600302016000909192909190915060008201518160000160006101000a81548173ffffffffffffffffffffffffffffffffffffffff021916908373ffffffffffffffffffffffffffffffffffffffff160217905550602082015181600101908051906020019061046e92919061096d565b50604082015181600201908051906020019061048b92919061096d565b505050905080600260003373ffffffffffffffffffffffffffffffffffffffff1673ffffffffffffffffffffffffffffffffffffffff168152602001908152602001600020819055505050505050565b600181815481106104e857fe5b9060005260206000209060050201600091509050806000018054600181600116156101000203166002900480601f0160208091040260200160405190810160405280929190818152602001828054600181600116156101000203166002900480156105945780601f1061056957610100808354040283529160200191610594565b820191906000526020600020905b81548152906001019060200180831161057757829003601f168201915b505050505090806001018054600181600116156101000203166002900480601f0160208091040260200160405190810160405280929190818152602001828054600181600116156101000203166002900480156106325780601f1061060757610100808354040283529160200191610632565b820191906000526020600020905b81548152906001019060200180831161061557829003601f168201915b5050505050908060020160009054906101000a900461ffff16908060030154908060040160009054906101000a900460ff16905085565b600060784201905060006001806040518060a001604052808a8a8080601f016020809104026020016040519081016040528093929190818152602001838380828437600081840152601f19601f82011690508083019250505050505050815260200188888080601f016020809104026020016040519081016040528093929190818152602001838380828437600081840152601f19601f8201169050808301925050505050505081526020018661ffff1681526020018581526020016000151581525090806001815401808255809150509060018203906000526020600020906005020160009091929091909150600082015181600001908051906020019061077392919061096d565b50602082015181600101908051906020019061079092919061096d565b5060408201518160020160006101000a81548161ffff021916908361ffff1602179055506060820151816003015560808201518160040160006101000a81548160ff0219169083151502179055505050039050336003600083815260200190815260200160002060006101000a81548173ffffffffffffffffffffffffffffffffffffffff021916908373ffffffffffffffffffffffffffffffffffffffff160217905550600460003373ffffffffffffffffffffffffffffffffffffffff1673ffffffffffffffffffffffffffffffffffffffff168152602001908152602001600020600081819054906101000a900461ffff168092919060010191906101000a81548161ffff021916908361ffff16021790555050807f07ac1862c3f88efc3f7adce12c7627cdbf03427e621971ba0e08cd32868a808c88888888888860006040518080602001806020018661ffff1661ffff1681526020018581526020018415151515815260200183810383528a8a82818152602001925080828437600081840152601f19601f8201169050808301925050508381038252888882818152602001925080828437600081840152601f19601f820116905080830192505050995050505050505050505060405180910390a250505050505050565b828054600181600116156101000203166002900490600052602060002090601f016020900481019282601f106109ae57805160ff19168380011785556109dc565b828001600101855582156109dc579182015b828111156109db5782518255916020019190600101906109c0565b5b5090506109e991906109ed565b5090565b610a0f91905b80821115610a0b5760008160009055506001016109f3565b5090565b9056fea165627a7a72305820c43f1265c8d4494fc96a06a66157b9c4729c464c74591b6f10371a4f26427df30029",
  "source": "pragma solidity >=0.4.21 <0.6.0;\n\ncontract TicketCreation {\n\n  /* Emit events when new accounts and new tickets have been created */\n  event NewAccount(uint256 indexed userId, string firstName, string lastName);\n  event NewTicket(uint256 indexed ticketId, string eventName, string description, uint16 price, uint256 expiry_date, bool expiry_status);\n\n  /* Struct for User */\n  struct User {\n    address userAd;\n    string firstName;\n    string lastName;\n  }\n\n  /* Struct for Ticket, ticket ID is stored in a mapping below in ticketsToOwner */\n  struct Ticket {\n    string eventName;\n    string description;\n    uint16 price;\n    uint256 expiry_date;\n    bool expiry_status;\n  }\n\n  User[] users; /* Array of Users */\n  Ticket[] public tickets; /* Array of Tickets */\n\n  /* Maps address to user ID */\n  mapping (address => uint256) adToUserId;\n  /* Maps ticket IDs to user addresses */\n  mapping (uint256 => address) ticketsToOwner;\n  /* Maps users to their number of tickets held */\n  mapping (address => uint16) ownerToQuantity;\n\n  function accountCreation(string calldata _firstName, string calldata _lastName) external {\n    uint256 userId = users.push(User(msg.sender, _firstName, _lastName));\n    adToUserId[msg.sender] = userId;\n    // emit NewAccount(userId, _firstName, _lastName); /* Event emitter */\n  }\n\n  function createTicket(string calldata _eventName, string calldata _description, uint16 _price) external {\n    //require(adToUserId[msg.sender] > 0, \"Please create an account first.\"); /* Requires user to have an account */\n    uint256 expiry_date = now + 120;\n    uint256 ticketId = tickets.push(Ticket(_eventName, _description, _price, expiry_date, false))-1;\n    ticketsToOwner[ticketId] = msg.sender;\n    ownerToQuantity[msg.sender]++;\n    emit NewTicket(ticketId, _eventName, _description, _price, expiry_date, false); /* Event emitter */\n  }\n\n}",
  "sourcePath": "/Users/AaronKo/Desktop/Solidity/TicketExchange2/contracts/TicketCreation_simplified.sol",
  "compiler": {
    "name": "solc",
    "version": "0.5.8+commit.23d335f2.Emscripten.clang"
  },
  "schemaVersion": "3.0.11",
  "updatedAt": "2019-08-12T23:35:25.632Z",
  "devdoc": {
    "methods": {}
  },
  "userdoc": {
    "methods": {}
  }
}